S02B00002F686F6D652F77616E67756F2F35322D4769746875622D436F64652F4F42435F436F64652F322D49BA
S3158200000008B500F0ADF8024800F02EF8002008BDD1
S315820000106E0100820648074902468A4202D342F8A6
S31582000020040BFAE74FF010408546FFF7E9FFFEE73B
S30D8200003080010082800100823A
S31582000038D9F874C0DCF800F0D9F874C0DCF804F09A
S31582000048D9F874C0DCF808F0D9F874C0DCF80CF07A
S31582000058D9F874C0DCF810F0D9F874C0DCF814F05A
S31582000068D9F874C0DCF818F0D9F874C0DCF81CF03A
S31582000078D9F874C0DCF820F0D9F874C0DCF824F01A
S31582000088D9F874C0DCF828F0D9F874C0DCF82CF0FA
S31582000098D9F874C0DCF830F0D9F874C0DCF834F0DA
S315820000A8D9F874C0DCF838F0D9F874C0DCF83CF0BA
S315820000B8D9F874C0DCF840F0D9F874C0DCF844F09A
S315820000C8D9F874C0DCF848F0D9F874C0DCF84CF07A
S315820000D8D9F874C0DCF850F0D9F874C0DCF854F05A
S315820000E8D9F874C0DCF858F0D9F874C0DCF85CF03A
S315820000F8D9F874C0DCF860F0D9F874C0DCF864F01A
S31582000108D9F874C0DCF868F0D9F874C0DCF86CF0F9
S31582000118D9F874C0DCF870F0D9F874C0DCF874F0D9
S31582000128D9F874C0DCF878F0D9F874C0DCF87CF0B9
S30F82000138D9F874C0DCF880F0704735
S315820001440021044B044A934200D3704703F8011BEF
S31182000154F9E700BF800100828001008272
S311820001600148FFF781BF00BF6E010082DC
S3158200016C00006179616E207374616E64616C6F6E6E
S3088200017C650A0089
S7058200000177
